{
    "CalculatorFunding" : {
        "_info" : {
            "comment" : "Math opcodes and MSG.VALUE (ETH) Tx from user to contract.",
            "filling-rpc-server" : "evm version 1.12.1-unstable-c2db667c-20230707",
            "filling-tool-version" : "retesteth-0.3.1-cancun+commit.eb1b09c9.Linux.g++",
            "generatedTestHash" : "4cc4dfe309769ef423e5ad48bc932b0b5b8eb98eb559d0c37ec2feee31ddf4a4",
            "lllcversion" : "Version: 0.5.14-develop.2023.7.8+commit.b2b86751.Linux.g++",
            "solidity" : "Version: 0.8.17+commit.8df45f5f.Linux.g++",
            "source" : "src/GeneralStateTestsFiller/stExample/CalculatorFundingFiller.yml",
            "sourceHash" : "0d362dda54510ea104ed25f0c986b8e0cd5e3bd08900e97fd7833d4ffa31e257"
        },
        "env" : {
            "currentBaseFee" : "0x0a",
            "currentCoinbase" : "0x2adc25665018aa1fe0e6bc666dac8fc2697ff9ba",
            "currentDifficulty" : "0x020000",
            "currentGasLimit" : "0x05f5e100",
            "currentNumber" : "0x01",
            "currentRandom" : "0x0000000000000000000000000000000000000000000000000000000000020000",
            "currentTimestamp" : "0x64a9ee4e",
            "previousHash" : "0x5e20a0453cecd065ea59c37ac63e079ee08998b6045136a8ce6635c7912ec0b6"
        },
        "post" : {
            "Berlin" : [
                {
                    "hash" : "0xaa73c44680f718b6ab0c2996f52a17c75734c86fcd9b3e328a5fdd8d3f7719e6",
                    "indexes" : {
                        "data" : 0,
                        "gas" : 0,
                        "value" : 0
                    },
                    "logs" : "0x1dcc4de8dec75d7aab85b567b6ccd41ad312451b948a7413f0a142fd40d49347",
                    "txbytes" : "0xf863808203e88404c4b40094095e7baea6a6c7c4c2dfeb977efac326af552d8702801ca0ff3ae454ab182b54913349efa53495db7ef808fdbb0f39df42c138822a59699aa03d6e6382b134858bd10fc9286a09e929cab5b1a7d7005a9b18ec44d6c87bcc44"
                }
            ],
            "Istanbul" : [
                {
                    "hash" : "0x566d7070a84311b1f9af81c621afe31dba9e02fb6b3ae0b295c04fa5cfb7701a",
                    "indexes" : {
                        "data" : 0,
                        "gas" : 0,
                        "value" : 0
                    },
                    "logs" : "0x1dcc4de8dec75d7aab85b567b6ccd41ad312451b948a7413f0a142fd40d49347",
                    "txbytes" : "0xf863808203e88404c4b40094095e7baea6a6c7c4c2dfeb977efac326af552d8702801ca0ff3ae454ab182b54913349efa53495db7ef808fdbb0f39df42c138822a59699aa03d6e6382b134858bd10fc9286a09e929cab5b1a7d7005a9b18ec44d6c87bcc44"
                }
            ],
            "London" : [
                {
                    "hash" : "0x681022886c4af484c4c1c40c0737c27540505dee67bdd14409712b32e1245d9c",
                    "indexes" : {
                        "data" : 0,
                        "gas" : 0,
                        "value" : 0
                    },
                    "logs" : "0x1dcc4de8dec75d7aab85b567b6ccd41ad312451b948a7413f0a142fd40d49347",
                    "txbytes" : "0xf863808203e88404c4b40094095e7baea6a6c7c4c2dfeb977efac326af552d8702801ca0ff3ae454ab182b54913349efa53495db7ef808fdbb0f39df42c138822a59699aa03d6e6382b134858bd10fc9286a09e929cab5b1a7d7005a9b18ec44d6c87bcc44"
                }
            ],
            "Merge" : [
                {
                    "hash" : "0x681022886c4af484c4c1c40c0737c27540505dee67bdd14409712b32e1245d9c",
                    "indexes" : {
                        "data" : 0,
                        "gas" : 0,
                        "value" : 0
                    },
                    "logs" : "0x1dcc4de8dec75d7aab85b567b6ccd41ad312451b948a7413f0a142fd40d49347",
                    "txbytes" : "0xf863808203e88404c4b40094095e7baea6a6c7c4c2dfeb977efac326af552d8702801ca0ff3ae454ab182b54913349efa53495db7ef808fdbb0f39df42c138822a59699aa03d6e6382b134858bd10fc9286a09e929cab5b1a7d7005a9b18ec44d6c87bcc44"
                }
            ],
            "Shanghai" : [
                {
                    "hash" : "0x681022886c4af484c4c1c40c0737c27540505dee67bdd14409712b32e1245d9c",
                    "indexes" : {
                        "data" : 0,
                        "gas" : 0,
                        "value" : 0
                    },
                    "logs" : "0x1dcc4de8dec75d7aab85b567b6ccd41ad312451b948a7413f0a142fd40d49347",
                    "txbytes" : "0xf863808203e88404c4b40094095e7baea6a6c7c4c2dfeb977efac326af552d8702801ca0ff3ae454ab182b54913349efa53495db7ef808fdbb0f39df42c138822a59699aa03d6e6382b134858bd10fc9286a09e929cab5b1a7d7005a9b18ec44d6c87bcc44"
                }
            ]
        },
        "pre" : {
            "0x095e7baea6a6c7c4c2dfeb977efac326af552d87" : {
                "balance" : "0x00",
                "code" : "0x426000553360015500",
                "nonce" : "0x00",
                "storage" : {
                }
            },
            "0xa94f5374fce5edbc8e2a8697c15331677e6ebf0b" : {
                "balance" : "0x0cb49b44ba602d800000",
                "code" : "0x",
                "nonce" : "0x00",
                "storage" : {
                }
            }
        },
        "transaction" : {
            "data" : [
                "0x"
            ],
            "gasLimit" : [
                "0x04c4b400"
            ],
            "gasPrice" : "0x03e8",
            "nonce" : "0x00",
            "secretKey" : "0x45a915e4d060149eb4365960e6a7a45f334393093061116b197e3240065ff2d8",
            "sender" : "0xa94f5374fce5edbc8e2a8697c15331677e6ebf0b",
            "to" : "0x095e7baea6a6c7c4c2dfeb977efac326af552d87",
            "value" : [
                "0x02"
            ]
        }
    }
}