{
    "CalculatorFunding" : {
        "_info" : {
            "comment" : "Math opcodes and MSG.VALUE (ETH) Tx from user to contract.",
            "filling-rpc-server" : "evm version 1.12.1-unstable-c2db667c-20230707",
            "filling-tool-version" : "retesteth-0.3.1-cancun+commit.eb1b09c9.Linux.g++",
            "generatedTestHash" : "544613285580215f27eddd6bf67281ccc0343ed9b7c80df7ef5e7cd681b8f52f",
            "lllcversion" : "Version: 0.5.14-develop.2023.7.8+commit.b2b86751.Linux.g++",
            "solidity" : "Version: 0.8.17+commit.8df45f5f.Linux.g++",
            "source" : "src/GeneralStateTestsFiller/stExample/CalculatorFundingFiller.yml",
            "sourceHash" : "15ed240e40f21af4e87e74762c2009a2a6792ca7cb38c636280b824c60d90b40"
        },
        "env" : {
            "currentBaseFee" : "0x0a",
            "currentCoinbase" : "0x2adc25665018aa1fe0e6bc666dac8fc2697ff9ba",
            "currentDifficulty" : "0x020000",
            "currentGasLimit" : "0x05f5e100",
            "currentNumber" : "0x01",
            "currentRandom" : "0x0000000000000000000000000000000000000000000000000000000000020000",
            "currentTimestamp" : "0x64a9ee4e",
            "previousHash" : "0x5e20a0453cecd065ea59c37ac63e079ee08998b6045136a8ce6635c7912ec0b6"
        },
        "post" : {
            "Berlin" : [
                {
                    "hash" : "0xc029d04dbf7b68952e0eb33d85a4c3d2ea96ac3ba2e208ed8369b2c610cfb4cd",
                    "indexes" : {
                        "data" : 0,
                        "gas" : 0,
                        "value" : 0
                    },
                    "logs" : "0x71c993059ba3727a383d4b1356b03a45b9f7c4d05757c5708445247b50ee9948",
                    "txbytes" : "0xf863808203e88404c4b40094095e7baea6a6c7c4c2dfeb977efac326af552d8702801ca0ff3ae454ab182b54913349efa53495db7ef808fdbb0f39df42c138822a59699aa03d6e6382b134858bd10fc9286a09e929cab5b1a7d7005a9b18ec44d6c87bcc44"
                }
            ],
            "Istanbul" : [
                {
                    "hash" : "0x47e5fd17be4e08105ac71ca8e7c56233b7f714ed132f5ddbd07b3111d2bd87ce",
                    "indexes" : {
                        "data" : 0,
                        "gas" : 0,
                        "value" : 0
                    },
                    "logs" : "0x71c993059ba3727a383d4b1356b03a45b9f7c4d05757c5708445247b50ee9948",
                    "txbytes" : "0xf863808203e88404c4b40094095e7baea6a6c7c4c2dfeb977efac326af552d8702801ca0ff3ae454ab182b54913349efa53495db7ef808fdbb0f39df42c138822a59699aa03d6e6382b134858bd10fc9286a09e929cab5b1a7d7005a9b18ec44d6c87bcc44"
                }
            ],
            "London" : [
                {
                    "hash" : "0xe9ea143dcf51040cfc1b7ec000a421ce2d6bc9a459eaa6cab5aaf3e8c81c02b3",
                    "indexes" : {
                        "data" : 0,
                        "gas" : 0,
                        "value" : 0
                    },
                    "logs" : "0x71c993059ba3727a383d4b1356b03a45b9f7c4d05757c5708445247b50ee9948",
                    "txbytes" : "0xf863808203e88404c4b40094095e7baea6a6c7c4c2dfeb977efac326af552d8702801ca0ff3ae454ab182b54913349efa53495db7ef808fdbb0f39df42c138822a59699aa03d6e6382b134858bd10fc9286a09e929cab5b1a7d7005a9b18ec44d6c87bcc44"
                }
            ],
            "Merge" : [
                {
                    "hash" : "0xe9ea143dcf51040cfc1b7ec000a421ce2d6bc9a459eaa6cab5aaf3e8c81c02b3",
                    "indexes" : {
                        "data" : 0,
                        "gas" : 0,
                        "value" : 0
                    },
                    "logs" : "0x71c993059ba3727a383d4b1356b03a45b9f7c4d05757c5708445247b50ee9948",
                    "txbytes" : "0xf863808203e88404c4b40094095e7baea6a6c7c4c2dfeb977efac326af552d8702801ca0ff3ae454ab182b54913349efa53495db7ef808fdbb0f39df42c138822a59699aa03d6e6382b134858bd10fc9286a09e929cab5b1a7d7005a9b18ec44d6c87bcc44"
                }
            ],
            "Shanghai" : [
                {
                    "hash" : "0xe9ea143dcf51040cfc1b7ec000a421ce2d6bc9a459eaa6cab5aaf3e8c81c02b3",
                    "indexes" : {
                        "data" : 0,
                        "gas" : 0,
                        "value" : 0
                    },
                    "logs" : "0x71c993059ba3727a383d4b1356b03a45b9f7c4d05757c5708445247b50ee9948",
                    "txbytes" : "0xf863808203e88404c4b40094095e7baea6a6c7c4c2dfeb977efac326af552d8702801ca0ff3ae454ab182b54913349efa53495db7ef808fdbb0f39df42c138822a59699aa03d6e6382b134858bd10fc9286a09e929cab5b1a7d7005a9b18ec44d6c87bcc44"
                }
            ]
        },
        "pre" : {
            "0x095e7baea6a6c7c4c2dfeb977efac326af552d87" : {
                "balance" : "0x00",
                "code" : "0x426000553360015560006000a07fc5ab16f1bddb259b10fe689dea60d8cce8e149cda6275168becc5bc11b2fc35460006000a100",
                "nonce" : "0x00",
                "storage" : {
                }
            },
            "0xa94f5374fce5edbc8e2a8697c15331677e6ebf0b" : {
                "balance" : "0x0cb49b44ba602d800000",
                "code" : "0x",
                "nonce" : "0x00",
                "storage" : {
                }
            }
        },
        "transaction" : {
            "data" : [
                "0x"
            ],
            "gasLimit" : [
                "0x04c4b400"
            ],
            "gasPrice" : "0x03e8",
            "nonce" : "0x00",
            "secretKey" : "0x45a915e4d060149eb4365960e6a7a45f334393093061116b197e3240065ff2d8",
            "sender" : "0xa94f5374fce5edbc8e2a8697c15331677e6ebf0b",
            "to" : "0x095e7baea6a6c7c4c2dfeb977efac326af552d87",
            "value" : [
                "0x02"
            ]
        }
    }
}